:060000000A128A11D72C40
:1009620083120313081388120812871307138811BE
:1009720008110800F0007008831203139300C12CC1
:1009820083160313141CC62CC72CC12CC82C0800B8
:100992000A128A11E7240A128A110A128A116F2690
:1009A2000A128A11CE2C0A128A110028B501B60148
:1009B200B701B801B901BA01BB01BC01BD01BE0159
:1009C200BF01C00183010A128A11C92C1F3083168C
:1009D200031385001F3086001030870088018312C0
:1009E2000313860187018801871207168711403099
:1009F200831603139400203083120313940008001B
:100A0200003083120313B8000030B7000030B60084
:100A12000030B50093010D2D83160313141C122D03
:100A2200132D0D2D142D831203131308F000F10161
:100A3200F201F3017308B8007208B7007108B6003A
:100A42007008B500080083120313AB01A71F2A2DFB
:100A52002B2D342DA609A709A60A0319A70AAB0153
:100A62000314AB0D342D2608F0002708F100F20123
:100A72008E30A9002908F3002B08AA002A08F400E6
:100A82000A128A11F4250A128A11700883120313BA
:100A9200A6007108A7007208A8004F2D0800831253
:100AA2000313AF01B001AF01B001602D0130831219
:100AB2000313AF070318B00A0030B007602D3008E7
:100AC200A701A7072F08A601A6070A128A11242543
:100AD2000A128A11831203132608F8002708F90064
:100AE2002808FA002C08FB002D08FC002E08FD0047
:100AF2000A128A1184250A128A11031C812D822D61
:100B0200572D832D0800FA1F872D882DB02D003018
:100B120083120313A0000030A1008030A2007809E4
:100B2200A3007909A4007A09A500A30A0319A40A5B
:100B32000319A50A2308A00724080318240FA22DCD
:100B4200A32DA10725080318250FA82DA92DA2075B
:100B52002008F8002108F9002208FA00B02DFD1F34
:100B6200B32DB42DDC2D003083120313A00000300E
:100B7200A1008030A2007B09A3007C09A4007D09AA
:100B8200A500A30A0319A40A0319A50A2308A007AA
:100B920024080318240FCE2DCF2DA10725080318F2
:100BA200250FD42DD52DA2072008FB002108FC001B
:100BB2002208FD00DC2D8030FA068030FD067D081B
:100BC2007A02031DEA2D7C087902031DEA2D7B08B7
:100BD20078020318ED2DEE2DF02D0310F32D0314E2
:100BE200F32DF32D08007308031DF82D002E720853
:100BF20071047004031DFE2DFF2D162E002E0030F1
:100C0200F0000030F1000030F2006E2E6E2E162E33
:100C12000130F5007508F30701300310F20CF10CF6
:100C2200F00CFF3E031D0E2E162EFE307205031D24
:100C32001B2E1C2E092E342E342E0130F500750881
:100C4200F3070130F007003003180130F1070030DC
:100C520003180130F20701300310F20CF10CF00C12
:100C6200FF3E031D2D2EFF307205031D392E3A2E35
:100C72001E2E472E472E0130F30201300310F00DD5
:100C8200F10DF20DFF3E031D3F2E472EF11F4A2E9E
:100C92004B2E3C2E73184E2E4F2E552EFF30F00544
:100CA2007F30F105FF30F2050310F30C7308F500F5
:100CB200F601F70110300310F50DF60DF70DFF3EAA
:100CC200031D5C2E7508F0047608F1047708F2041F
:100CD2007408031D6D2E6E2EF2170800E830831281
:100CE2000313B3000330B400061E782E792E8C2E27
:100CF2008616081701300A128A11BB240A128A11B9
:100D02000A128A1101250A128A110A128A112C2743
:100D12000A128A118C2E83120313861D912E922E93
:100D2200A52E8616881602300A128A11BB240A12D0
:100D32008A110A128A1101250A128A110A128A11CB
:100D42002C270A128A11A52E83120313061DAA2E1E
:100D5200AB2EBE2E8616081603300A128A11BB2449
:100D62000A128A110A128A1101250A128A110A121A
:100D72008A112C270A128A11BE2E83120313861C93
:100D8200C32EC42ED72E8616871704300A128A1154
:100D9200BB240A128A110A128A1101250A128A1127
:100DA2000A128A112C270A128A11D72E83120313D0
:100DB200061CDC2EDD2EEF2E8616071705300A12D2
:100DC2008A11BB240A128A110A128A1101250A12F7
:100DD2008A110A128A112C270A128A11831203130A
:100DE2003408A701A7073308A601A6070A128A1129
:100DF20024250A128A11831203132608AC0027083D
:100E0200AD002808AE000A128A1150250A128A1172
:100E12008312031386120A128A11B1240A128A114A
:100E2200831203133408A701A7073308A601A607F4
:100E32000A128A1124250A128A1183120313260820
:100E4200AC002708AD002808AE000A128A1150250E
:100E52000A128A110800E83083120313B10003302A
:100E6200B20000303806031D402F00303706031D44
:100E7200402F00303606031D402F80303506031DFB
:100E8200432F442F472F86160817472F0030380666
:100E9200031D552F00303706031D552F003036062F
:100EA200031D552F40303506031D582F592F5C2F37
:100EB200861688165C2F00303806031D6A2F003014
:100EC2003706031D6A2F00303606031D6A2FC03015
:100ED2003506031D6D2F6E2F712F86160816712F82
:100EE20000303806031D7F2F00303706031D7F2F89
:100EF20000303606031D7F2F20303506031D822F5A
:100F0200832F862F86168717862F00303806031DFB
:100F1200942F00303706031D942F00303606031D30
:100F2200942FA0303506031D972F982F9B2F8616DE
:100F320007179B2F00303806031DA92F00303706F4
:100F4200031DA92F00303606031DA92F6030350678
:100F5200031DAC2FAD2FB02F86168815B02F003091
:100F62003806031DBE2F00303706031DBE2F00308A
:100F72003606031DBE2FE0303506031DC12FC22FDA
:100F8200C52F86160815C52F3208A701A7073108F5
:100F9200A601A6070A128A1124250A128A118312AF
:100FA20003132608AC002708AD002808AE000A1279
:100FB2008A1150250A128A118312031386120A1209
:100FC2008A11B1240A128A11831203133208A7016B
:100FD200A7073108A601A6070A128A1124250A12B8
:100FE2008A11831203132608AC002708AD002808D3
:0E0FF200AE000A128A1150250A128A11080058
:02400E003AFF77
:00000001FF
