:060000000A128A11D22C45
:1009A400B301B401B501B60183010A128A118E2D77
:1009B400831203130813881208128713071388116C
:1009C40008110800F0007008831203139300EA2C46
:1009D40083160313141CEF2CF02CEA2CF12C0800C2
:1009E4001F308316031385001F3086001F308700D5
:1009F400880183120313860187018801871240301E
:100A04008316031394006530831203139400930137
:100A14000800003083120313B6000030B500003024
:100A2400B4000030B3009301172D83160313141C74
:100A34001C2D1D2D172D1E2D831203131308F000DA
:100A4400F101F201F3017308B6007208B5007108F0
:100A5400B4007008B300080083120313AB01A71F8E
:100A6400342D352D3E2DA609A709A60A0319A70A78
:100A7400AB010314AB0D3E2D2608F0002708F1004E
:100A8400F2018E30A9002908F3002B08AA002A08D5
:100A9400F4000A128A1135260A128A117008831288
:100AA4000313A6007108A7007208A800592D0800B6
:100AB40083120313AF01B001AF01B0016A2D0130FD
:100AC40083120313AF070318B00A0030B0076A2D6E
:100AD4003008A701A7072F08A601A6070A128A1142
:100AE4002E250A128A11831203132608F8002708F8
:100AF400F9002808FA002C08FB002D08FC002E0839
:100B0400FD000A128A11C5250A128A11031C8B2DB5
:100B14008C2D612D8D2D08000A128A11F2240A12DF
:100B24008A11942D8312031386160A128A110B2537
:100B34000A128A110A128A1133270A128A110A1216
:100B44008A11B0260A128A11003083120313AC00F2
:100B54004830AD004330AE000A128A115A250A12F9
:100B64008A118312031386120030AC004830AD00A2
:100B74004330AE000A128A115A250A128A11942DA2
:100B84000A128A110028FA1FC82DC92DF12D003030
:100B940083120313A0000030A1008030A200780962
:100BA400A3007909A4007A09A500A30A0319A40AD9
:100BB4000319A50A2308A00724080318240FE32D0A
:100BC400E42DA10725080318250FE92DEA2DA20716
:100BD4002008F8002108F9002208FA00F12DFD1F71
:100BE400F42DF52D1D2E003083120313A0000030C8
:100BF400A1008030A2007B09A3007C09A4007D0928
:100C0400A500A30A0319A40A0319A50A2308A00727
:100C140024080318240F0F2E102EA10725080318EB
:100C2400250F152E162EA2072008FB002108FC0014
:100C34002208FD001D2E8030FA068030FD067D0856
:100C44007A02031D2B2E7C087902031D2B2E7B08B0
:100C5400780203182E2E2F2E312E0310342E031457
:100C6400342E342E08007308031D392E412E7208C9
:100C740071047004031D3F2E402E572E412E003068
:100C8400F0000030F1000030F200AF2EAF2E572EEE
:100C94000130F5007508F30701300310F20CF10C74
:100CA400F00CFF3E031D4F2E572EFE307205031D20
:100CB4005C2E5D2E4A2E752E752E0130F5007508BA
:100CC400F3070130F007003003180130F10700305A
:100CD40003180130F20701300310F20CF10CF00C90
:100CE400FF3E031D6E2EFF307205031D7A2E7B2EF0
:100CF4005F2E882E882E0130F30201300310F00D90
:100D0400F10DF20DFF3E031D802E882EF11F8B2E58
:100D14008C2E7D2E73188F2E902E962EFF30F0057C
:100D24007F30F105FF30F2050310F30C7308F50072
:100D3400F601F70110300310F50DF60DF70DFF3E27
:100D4400031D9D2E7508F0047608F1047708F2045B
:100D54007408031DAE2EAF2EF2170800E83083127C
:100D64000313B1000330B200061EB92EBA2EC42EEE
:100D740080300A128A11E4240A128A11831203139E
:100D84000817C42E861DC72EC82ED22EBE300A12B6
:100D94008A11E4240A128A11831203138816D22EAC
:100DA400061DD52ED62EE02EEF300A128A11E42429
:100DB4000A128A11831203130816E02E861CE32EEE
:100DC400E42EEE2E20300A128A11E4240A128A112B
:100DD400831203138717EE2E061CF12EF22EFB2E20
:100DE400A0300A128A11E4240A128A11831203130E
:100DF40007173208A701A7073108A601A6070A1298
:100E04008A112E250A128A11831203132608AC00B4
:100E14002708AD002808AE000A128A115A250A12C2
:100E24008A110A128A11DA240A128A11831203130C
:100E34003208A701A7073108A601A6070A128A11DA
:100E44002E250A128A11831203132608AC002708E0
:100E5400AD002808AE000A128A115A250A128A1116
:100E64000800E83083120313B1000330B2000030ED
:100E74003606031D472F00303506031D472F00306B
:100E84003406031D472FBE303306031D4A2F4B2F54
:100E94004D2F08174D2F00303606031D5B2F0030F1
:100EA4003506031D5B2F00303406031D5B2FEF3026
:100EB4003306031D5E2F5F2F612F8816612F0030CC
:100EC4003606031D6F2F00303506031D6F2F0030CB
:100ED4003406031D6F2F03303306031D722F732F47
:100EE400752F0816752F00303606031D832F00302A
:100EF4003506031D832F00303406031D832F043071
:100F04003306031D862F872F892F8717892F0030DB
:100F14003606031D972F00303506031D972F00302A
:100F24003406031D972F05303306031D9A2F9B2F7C
:100F34009D2F07179D2F00303606031DAB2F003061
:100F44003506031DAB2F00303406031DAB2F0630CE
:100F54003306031DAE2FAF2FB12F8815B12F0030EC
:100F64003606031DBF2F00303506031DBF2F00308A
:100F74003406031DBF2F07303306031DC22FC32FB2
:100F8400C52F0815C52F3208A701A7073108A601E8
:100F9400A6070A128A112E250A128A118312031334
:100FA4002608AC002708AD002808AE000A128A11F2
:100FB4005A250A128A118312031386120A128A11FD
:100FC400DA240A128A11831203133208A701A7072D
:100FD4003108A601A6070A128A112E250A128A11BF
:100FE400831203132608AC002708AD002808AE00BE
:0C0FF4000A128A115A250A128A110800FC
:02400E003AFF77
:00000001FF
